{
  "_format": "hh-sol-artifact-1",
  "contractName": "CyberpopFactory",
  "sourceName": "contracts/CyberFactory.sol",
  "abi": [
    {
      "anonymous": false,
      "inputs": [
        {
          "indexed": true,
          "internalType": "address",
          "name": "previousOwner",
          "type": "address"
        },
        {
          "indexed": true,
          "internalType": "address",
          "name": "newOwner",
          "type": "address"
        }
      ],
      "name": "OwnershipTransferred",
      "type": "event"
    },
    {
      "inputs": [],
      "name": "_isPrivate",
      "outputs": [
        {
          "internalType": "bool",
          "name": "",
          "type": "bool"
        }
      ],
      "stateMutability": "view",
      "type": "function"
    },
    {
      "inputs": [],
      "name": "allCampaigns",
      "outputs": [
        {
          "internalType": "address[]",
          "name": "",
          "type": "address[]"
        }
      ],
      "stateMutability": "view",
      "type": "function"
    },
    {
      "inputs": [
        {
          "internalType": "uint256",
          "name": "",
          "type": "uint256"
        }
      ],
      "name": "campaigns",
      "outputs": [
        {
          "internalType": "address",
          "name": "",
          "type": "address"
        }
      ],
      "stateMutability": "view",
      "type": "function"
    },
    {
      "inputs": [
        {
          "internalType": "bool",
          "name": "_privacy",
          "type": "bool"
        }
      ],
      "name": "changePrivacy",
      "outputs": [],
      "stateMutability": "nonpayable",
      "type": "function"
    },
    {
      "inputs": [
        {
          "internalType": "string",
          "name": "_name",
          "type": "string"
        },
        {
          "internalType": "string",
          "name": "_symbol",
          "type": "string"
        },
        {
          "internalType": "uint256",
          "name": "_cost",
          "type": "uint256"
        },
        {
          "internalType": "uint256",
          "name": "_maxSupply",
          "type": "uint256"
        },
        {
          "internalType": "string",
          "name": "_initBaseURI",
          "type": "string"
        }
      ],
      "name": "createCampaign",
      "outputs": [],
      "stateMutability": "nonpayable",
      "type": "function"
    },
    {
      "inputs": [],
      "name": "owner",
      "outputs": [
        {
          "internalType": "address",
          "name": "",
          "type": "address"
        }
      ],
      "stateMutability": "view",
      "type": "function"
    },
    {
      "inputs": [],
      "name": "renounceOwnership",
      "outputs": [],
      "stateMutability": "nonpayable",
      "type": "function"
    },
    {
      "inputs": [
        {
          "internalType": "address",
          "name": "newOwner",
          "type": "address"
        }
      ],
      "name": "transferOwnership",
      "outputs": [],
      "stateMutability": "nonpayable",
      "type": "function"
    }
  ],
  "bytecode": "0x6080604052600180546001600160a01b031916331790556002805460ff60a01b1916905534801561002f57600080fd5b506100393361003e565b61008e565b600080546001600160a01b038381166001600160a01b0319831681178455604051919092169283917f8be0079c531659141344cd1fd0a4f28419497f9722a3daafe3b4186f6b6457e09190a35050565b61364a8061009d6000396000f3fe60806040523480156200001157600080fd5b5060043610620000935760003560e01c80638da5cb5b11620000625780638da5cb5b146200011757806392d3c4491462000129578063d4e3dd6f1462000140578063f2fde38b146200015757600080fd5b8063141961bc146200009857806342324b8014620000cc578063715018a614620000f25780637330f3ed14620000fe575b600080fd5b620000af620000a936600462000743565b6200016e565b6040516001600160a01b0390911681526020015b60405180910390f35b600254620000e190600160a01b900460ff1681565b6040519015158152602001620000c3565b620000fc62000199565b005b62000108620001dd565b604051620000c39190620007aa565b6000546001600160a01b0316620000af565b620000fc6200013a3660046200067f565b62000241565b620000fc62000151366004620006a1565b6200028c565b620000fc620001683660046200064f565b620004c0565b600381815481106200017f57600080fd5b6000918252602090912001546001600160a01b0316905081565b6000546001600160a01b03163314620001cf5760405162461bcd60e51b8152600401620001c69062000860565b60405180910390fd5b620001db600062000562565b565b606060038054806020026020016040519081016040528092919081815260200182805480156200023757602002820191906000526020600020905b81546001600160a01b0316815260019091019060200180831162000218575b5050505050905090565b6000546001600160a01b031633146200026e5760405162461bcd60e51b8152600401620001c69062000860565b60028054911515600160a01b0260ff60a01b19909216919091179055565b600254600160a01b900460ff161515600114620002aa5732620002b7565b6001546001600160a01b03165b600280546001600160a01b0319166001600160a01b03929092169190911790819055600160a01b900460ff1615156001141562000367576000546001600160a01b03163214620003675760405162461bcd60e51b815260206004820152603460248201527f4f6e6c79204379626572506f7020497320416c6c6f77656420546f204372656160448201527374652043616d706169676e7320466f72204e6f7760601b6064820152608401620001c6565b60008585858585600260009054906101000a90046001600160a01b03166040516200039290620005b2565b620003a396959493929190620007f9565b604051809103906000f080158015620003c0573d6000803e3d6000fd5b509050806001600160a01b0316632af4c31e600260149054906101000a900460ff161515600115151462000400576002546001600160a01b03166200040d565b6001546001600160a01b03165b6040516001600160e01b031960e084901b1681526001600160a01b039091166004820152602401600060405180830381600087803b1580156200044f57600080fd5b505af115801562000464573d6000803e3d6000fd5b5050600380546001810182556000919091527fc2575a0e9e593c00f959f8c92f12db2869c3395a3b0502d05e2516446f71f85b0180546001600160a01b0319166001600160a01b03949094169390931790925550505050505050565b6000546001600160a01b03163314620004ed5760405162461bcd60e51b8152600401620001c69062000860565b6001600160a01b038116620005545760405162461bcd60e51b815260206004820152602660248201527f4f776e61626c653a206e6577206f776e657220697320746865207a65726f206160448201526564647265737360d01b6064820152608401620001c6565b6200055f8162000562565b50565b600080546001600160a01b038381166001600160a01b0319831681178455604051919092169283917f8be0079c531659141344cd1fd0a4f28419497f9722a3daafe3b4186f6b6457e09190a35050565b612d6980620008ac83390190565b600082601f830112620005d1578081fd5b813567ffffffffffffffff80821115620005ef57620005ef62000895565b604051601f8301601f19908116603f011681019082821181831017156200061a576200061a62000895565b8160405283815286602085880101111562000633578485fd5b8360208701602083013792830160200193909352509392505050565b60006020828403121562000661578081fd5b81356001600160a01b038116811462000678578182fd5b9392505050565b60006020828403121562000691578081fd5b8135801515811462000678578182fd5b600080600080600060a08688031215620006b9578081fd5b853567ffffffffffffffff80821115620006d1578283fd5b620006df89838a01620005c0565b96506020880135915080821115620006f5578283fd5b6200070389838a01620005c0565b95506040880135945060608801359350608088013591508082111562000727578283fd5b506200073688828901620005c0565b9150509295509295909350565b60006020828403121562000755578081fd5b5035919050565b60008151808452815b81811015620007835760208185018101518683018201520162000765565b81811115620007955782602083870101525b50601f01601f19169290920160200192915050565b6020808252825182820181905260009190848201906040850190845b81811015620007ed5783516001600160a01b031683529284019291840191600101620007c6565b50909695505050505050565b60c0815260006200080e60c08301896200075c565b82810360208401526200082281896200075c565b905086604084015285606084015282810360808401526200084481866200075c565b91505060018060a01b03831660a0830152979650505050505050565b6020808252818101527f4f776e61626c653a2063616c6c6572206973206e6f7420746865206f776e6572604082015260600190565b634e487b7160e01b600052604160045260246000fdfe60c06040526005608081905264173539b7b760d91b60a09081526200002891600c9190620001cd565b506000600d55600a6010556011805461ffff19166101001790553480156200004f57600080fd5b5060405162002d6938038062002d69833981016040819052620000729162000326565b8551869086906200008b906000906020850190620001cd565b508051620000a1906001906020840190620001cd565b505050620000be620000b8620000ff60201b60201c565b62000103565b601380546001600160a01b0319166001600160a01b038316179055600d849055600f839055600e849055620000f38262000155565b5050505050506200043b565b3390565b600a80546001600160a01b038381166001600160a01b0319831681179093556040519116919082907f8be0079c531659141344cd1fd0a4f28419497f9722a3daafe3b4186f6b6457e090600090a35050565b600a546001600160a01b03163314620001b45760405162461bcd60e51b815260206004820181905260248201527f4f776e61626c653a2063616c6c6572206973206e6f7420746865206f776e6572604482015260640160405180910390fd5b8051620001c990600b906020840190620001cd565b5050565b828054620001db90620003e8565b90600052602060002090601f016020900481019282620001ff57600085556200024a565b82601f106200021a57805160ff19168380011785556200024a565b828001600101855582156200024a579182015b828111156200024a5782518255916020019190600101906200022d565b50620002589291506200025c565b5090565b5b808211156200025857600081556001016200025d565b600082601f83011262000284578081fd5b81516001600160401b0380821115620002a157620002a162000425565b604051601f8301601f19908116603f01168101908282118183101715620002cc57620002cc62000425565b81604052838152602092508683858801011115620002e8578485fd5b8491505b838210156200030b5785820183015181830184015290820190620002ec565b838211156200031c57848385830101525b9695505050505050565b60008060008060008060c087890312156200033f578182fd5b86516001600160401b038082111562000356578384fd5b620003648a838b0162000273565b975060208901519150808211156200037a578384fd5b620003888a838b0162000273565b965060408901519550606089015194506080890151915080821115620003ac578384fd5b50620003bb89828a0162000273565b60a089015190935090506001600160a01b0381168114620003da578182fd5b809150509295509295509295565b600181811c90821680620003fd57607f821691505b602082108114156200041f57634e487b7160e01b600052602260045260246000fd5b50919050565b634e487b7160e01b600052604160045260246000fd5b61291e806200044b6000396000f3fe6080604052600436106102725760003560e01c80634f6ccce71161014f57806395d89b41116100c1578063c87b56dd1161007a578063c87b56dd14610723578063d5abeb0114610743578063da3ef23f14610759578063e985e9c514610779578063f2c4ce1e146107c2578063f2fde38b146107e257600080fd5b806395d89b4114610690578063a0712d68146106a5578063a22cb465146106b8578063b88d4fde146106d8578063bba64ab4146106f8578063c66828621461070e57600080fd5b80636352211e116101135780636352211e146105cd57806370a08231146105ed578063715018a61461060d57806375395117146106225780637f00c7a6146106525780638da5cb5b1461067257600080fd5b80634f6ccce71461053457806351830227146105545780635193f31c1461057357806355f804b3146105935780635c975abb146105b357600080fd5b806323b872dd116101e85780633ccfd60b116101ac5780633ccfd60b1461048c57806342842e0e14610494578063438b6300146104b457806343a1a776146104e157806344a0d68a146104f4578063481c6a751461051457600080fd5b806323b872dd146103ec5780632a3f300c1461040c5780632af4c31e1461042c5780632f745c591461044c5780633a515b2f1461046c57600080fd5b806308615d0e1161023a57806308615d0e1461033d578063095ea7b31461035d57806313faede61461037d57806318160ddd146103a1578063228025e8146103b6578063239c70ae146103d657600080fd5b806301ffc9a71461027757806302329a29146102ac57806306fdde03146102ce578063081812fc146102f0578063081c8c4414610328575b600080fd5b34801561028357600080fd5b506102976102923660046124a8565b610802565b60405190151581526020015b60405180910390f35b3480156102b857600080fd5b506102cc6102c736600461248e565b61082d565b005b3480156102da57600080fd5b506102e3610873565b6040516102a391906126ad565b3480156102fc57600080fd5b5061031061030b366004612526565b610905565b6040516001600160a01b0390911681526020016102a3565b34801561033457600080fd5b506102e361099a565b34801561034957600080fd5b506102cc61035836600461233c565b610a28565b34801561036957600080fd5b506102cc610378366004612465565b610a76565b34801561038957600080fd5b50610393600d5481565b6040519081526020016102a3565b3480156103ad57600080fd5b50600854610393565b3480156103c257600080fd5b506102cc6103d1366004612526565b610b8c565b3480156103e257600080fd5b5061039360105481565b3480156103f857600080fd5b506102cc610407366004612388565b610bbb565b34801561041857600080fd5b506102cc61042736600461248e565b610bec565b34801561043857600080fd5b506102cc61044736600461233c565b610c30565b34801561045857600080fd5b50610393610467366004612465565b610c66565b34801561047857600080fd5b506102cc610487366004612526565b610cfc565b6102cc610d51565b3480156104a057600080fd5b506102cc6104af366004612388565b610e6e565b3480156104c057600080fd5b506104d46104cf36600461233c565b610e89565b6040516102a39190612669565b3480156104ed57600080fd5b5047610393565b34801561050057600080fd5b506102cc61050f366004612526565b610f47565b34801561052057600080fd5b50601354610310906001600160a01b031681565b34801561054057600080fd5b5061039361054f366004612526565b610f76565b34801561056057600080fd5b5060115461029790610100900460ff1681565b34801561057f57600080fd5b506102cc61058e36600461233c565b611017565b34801561059f57600080fd5b506102cc6105ae3660046124e0565b611062565b3480156105bf57600080fd5b506011546102979060ff1681565b3480156105d957600080fd5b506103106105e8366004612526565b61109f565b3480156105f957600080fd5b5061039361060836600461233c565b611116565b34801561061957600080fd5b506102cc61119d565b34801561062e57600080fd5b5061029761063d36600461233c565b60146020526000908152604090205460ff1681565b34801561065e57600080fd5b506102cc61066d366004612526565b6111d3565b34801561067e57600080fd5b50600a546001600160a01b0316610310565b34801561069c57600080fd5b506102e3611202565b6102cc6106b3366004612526565b611211565b3480156106c457600080fd5b506102cc6106d336600461243c565b611432565b3480156106e457600080fd5b506102cc6106f33660046123c3565b61143d565b34801561070457600080fd5b50610393600e5481565b34801561071a57600080fd5b506102e3611475565b34801561072f57600080fd5b506102e361073e366004612526565b611482565b34801561074f57600080fd5b50610393600f5481565b34801561076557600080fd5b506102cc6107743660046124e0565b611601565b34801561078557600080fd5b50610297610794366004612356565b6001600160a01b03918216600090815260056020908152604080832093909416825291909152205460ff1690565b3480156107ce57600080fd5b506102cc6107dd3660046124e0565b61163e565b3480156107ee57600080fd5b506102cc6107fd36600461233c565b61167b565b60006001600160e01b0319821663780e9d6360e01b148061082757506108278261170a565b92915050565b600a546001600160a01b031633146108605760405162461bcd60e51b815260040161085790612712565b60405180910390fd5b6011805460ff1916911515919091179055565b60606000805461088290612826565b80601f01602080910402602001604051908101604052809291908181526020018280546108ae90612826565b80156108fb5780601f106108d0576101008083540402835291602001916108fb565b820191906000526020600020905b8154815290600101906020018083116108de57829003601f168201915b5050505050905090565b6000818152600260205260408120546001600160a01b031661097e5760405162461bcd60e51b815260206004820152602c60248201527f4552433732313a20617070726f76656420717565727920666f72206e6f6e657860448201526b34b9ba32b73a103a37b5b2b760a11b6064820152608401610857565b506000908152600460205260409020546001600160a01b031690565b601280546109a790612826565b80601f01602080910402602001604051908101604052809291908181526020018280546109d390612826565b8015610a205780601f106109f557610100808354040283529160200191610a20565b820191906000526020600020905b815481529060010190602001808311610a0357829003601f168201915b505050505081565b600a546001600160a01b03163314610a525760405162461bcd60e51b815260040161085790612712565b6001600160a01b03166000908152601460205260409020805460ff19166001179055565b6000610a818261109f565b9050806001600160a01b0316836001600160a01b03161415610aef5760405162461bcd60e51b815260206004820152602160248201527f4552433732313a20617070726f76616c20746f2063757272656e74206f776e656044820152603960f91b6064820152608401610857565b336001600160a01b0382161480610b0b5750610b0b8133610794565b610b7d5760405162461bcd60e51b815260206004820152603860248201527f4552433732313a20617070726f76652063616c6c6572206973206e6f74206f7760448201527f6e6572206e6f7220617070726f76656420666f7220616c6c00000000000000006064820152608401610857565b610b87838361175a565b505050565b600a546001600160a01b03163314610bb65760405162461bcd60e51b815260040161085790612712565b600f55565b610bc533826117c8565b610be15760405162461bcd60e51b815260040161085790612747565b610b878383836118bf565b600a546001600160a01b03163314610c165760405162461bcd60e51b815260040161085790612712565b601180549115156101000261ff0019909216919091179055565b600a546001600160a01b03163314610c5a5760405162461bcd60e51b815260040161085790612712565b610c6381611a6a565b50565b6000610c7183611116565b8210610cd35760405162461bcd60e51b815260206004820152602b60248201527f455243373231456e756d657261626c653a206f776e657220696e646578206f7560448201526a74206f6620626f756e647360a81b6064820152608401610857565b506001600160a01b03919091166000908152600660209081526040808320938352929052205490565b600a546001600160a01b03163314610d265760405162461bcd60e51b815260040161085790612712565b6103e8610d3482600a6127c4565b600d54610d4191906127c4565b610d4b91906127b0565b600e5550565b600a546001600160a01b03163314610d7b5760405162461bcd60e51b815260040161085790612712565b600073af156e45f396170b9231fa269f942d5c6d293c2e6103e8610da04760196127c4565b610daa91906127b0565b604051600081818185875af1925050503d8060008114610de6576040519150601f19603f3d011682016040523d82523d6000602084013e610deb565b606091505b5050905080610df957600080fd5b6000610e0d600a546001600160a01b031690565b6001600160a01b03164760405160006040518083038185875af1925050503d8060008114610e57576040519150601f19603f3d011682016040523d82523d6000602084013e610e5c565b606091505b5050905080610e6a57600080fd5b5050565b610b878383836040518060200160405280600081525061143d565b60606000610e9683611116565b905060008167ffffffffffffffff811115610ec157634e487b7160e01b600052604160045260246000fd5b604051908082528060200260200182016040528015610eea578160200160208202803683370190505b50905060005b82811015610f3f57610f028582610c66565b828281518110610f2257634e487b7160e01b600052603260045260246000fd5b602090810291909101015280610f3781612861565b915050610ef0565b509392505050565b600a546001600160a01b03163314610f715760405162461bcd60e51b815260040161085790612712565b600d55565b6000610f8160085490565b8210610fe45760405162461bcd60e51b815260206004820152602c60248201527f455243373231456e756d657261626c653a20676c6f62616c20696e646578206f60448201526b7574206f6620626f756e647360a01b6064820152608401610857565b6008828154811061100557634e487b7160e01b600052603260045260246000fd5b90600052602060002001549050919050565b600a546001600160a01b031633146110415760405162461bcd60e51b815260040161085790612712565b6001600160a01b03166000908152601460205260409020805460ff19169055565b600a546001600160a01b0316331461108c5760405162461bcd60e51b815260040161085790612712565b8051610e6a90600b906020840190612201565b6000818152600260205260408120546001600160a01b0316806108275760405162461bcd60e51b815260206004820152602960248201527f4552433732313a206f776e657220717565727920666f72206e6f6e657869737460448201526832b73a103a37b5b2b760b91b6064820152608401610857565b60006001600160a01b0382166111815760405162461bcd60e51b815260206004820152602a60248201527f4552433732313a2062616c616e636520717565727920666f7220746865207a65604482015269726f206164647265737360b01b6064820152608401610857565b506001600160a01b031660009081526003602052604090205490565b600a546001600160a01b031633146111c75760405162461bcd60e51b815260040161085790612712565b6111d16000611a6a565b565b600a546001600160a01b031633146111fd5760405162461bcd60e51b815260040161085790612712565b601055565b60606001805461088290612826565b600061121c60085490565b60115490915060ff16156112685760405162461bcd60e51b815260206004820152601360248201527210d85b5c185a5b99db88125cc814185d5cd959606a1b6044820152606401610857565b60018210156112ef5760405162461bcd60e51b815260206004820152604760248201527f496e73756666696369656e74204d696e742052657175657374202d204d696e7460448201527f20416d6f756e74204d7573742042652047726561746572205468616e206f7220606482015266457175616c203160c81b608482015260a401610857565b6010548211156113535760405162461bcd60e51b815260206004820152602960248201527f457863657373204d696e742052657175657374202d2020526564756365204d696044820152681b9d08105b5bdd5b9d60ba1b6064820152608401610857565b600f546113608383612798565b11156113ba5760405162461bcd60e51b8152602060048201526024808201527f457863657373204d696e7420416d6f756e74204f7220546f6b656e20536f6c646044820152630813dd5d60e21b6064820152608401610857565b600a546001600160a01b03163314611403573360009081526014602052604090205460ff161515600114156114035781600e546113f791906127c4565b34101561140357600080fd5b60015b828111610b87576114203361141b8385612798565b611abc565b8061142a81612861565b915050611406565b610e6a338383611ad6565b61144733836117c8565b6114635760405162461bcd60e51b815260040161085790612747565b61146f84848484611ba5565b50505050565b600c80546109a790612826565b6000818152600260205260409020546060906001600160a01b03166115015760405162461bcd60e51b815260206004820152602f60248201527f4552433732314d657461646174613a2055524920717565727920666f72206e6f60448201526e3732bc34b9ba32b73a103a37b5b2b760891b6064820152608401610857565b601154610100900460ff166115a2576012805461151d90612826565b80601f016020809104026020016040519081016040528092919081815260200182805461154990612826565b80156115965780601f1061156b57610100808354040283529160200191611596565b820191906000526020600020905b81548152906001019060200180831161157957829003601f168201915b50505050509050919050565b60006115ac611bd8565b905060008151116115cc57604051806020016040528060008152506115fa565b806115d684611be7565b600c6040516020016115ea9392919061256a565b6040516020818303038152906040525b9392505050565b600a546001600160a01b0316331461162b5760405162461bcd60e51b815260040161085790612712565b8051610e6a90600c906020840190612201565b600a546001600160a01b031633146116685760405162461bcd60e51b815260040161085790612712565b8051610e6a906012906020840190612201565b600a546001600160a01b031633146116a55760405162461bcd60e51b815260040161085790612712565b6001600160a01b038116610c5a5760405162461bcd60e51b815260206004820152602660248201527f4f776e61626c653a206e6577206f776e657220697320746865207a65726f206160448201526564647265737360d01b6064820152608401610857565b60006001600160e01b031982166380ac58cd60e01b148061173b57506001600160e01b03198216635b5e139f60e01b145b8061082757506301ffc9a760e01b6001600160e01b0319831614610827565b600081815260046020526040902080546001600160a01b0319166001600160a01b038416908117909155819061178f8261109f565b6001600160a01b03167f8c5be1e5ebec7d5bd14f71427d1e84f3dd0314c0f7b2291e5b200ac8c7c3b92560405160405180910390a45050565b6000818152600260205260408120546001600160a01b03166118415760405162461bcd60e51b815260206004820152602c60248201527f4552433732313a206f70657261746f7220717565727920666f72206e6f6e657860448201526b34b9ba32b73a103a37b5b2b760a11b6064820152608401610857565b600061184c8361109f565b9050806001600160a01b0316846001600160a01b031614806118875750836001600160a01b031661187c84610905565b6001600160a01b0316145b806118b757506001600160a01b0380821660009081526005602090815260408083209388168352929052205460ff165b949350505050565b826001600160a01b03166118d28261109f565b6001600160a01b03161461193a5760405162461bcd60e51b815260206004820152602960248201527f4552433732313a207472616e73666572206f6620746f6b656e2074686174206960448201526839903737ba1037bbb760b91b6064820152608401610857565b6001600160a01b03821661199c5760405162461bcd60e51b8152602060048201526024808201527f4552433732313a207472616e7366657220746f20746865207a65726f206164646044820152637265737360e01b6064820152608401610857565b6119a7838383611d01565b6119b260008261175a565b6001600160a01b03831660009081526003602052604081208054600192906119db9084906127e3565b90915550506001600160a01b0382166000908152600360205260408120805460019290611a09908490612798565b909155505060008181526002602052604080822080546001600160a01b0319166001600160a01b0386811691821790925591518493918716917fddf252ad1be2c89b69c2b068fc378daa952ba7f163c4a11628f55a4df523b3ef91a4505050565b600a80546001600160a01b038381166001600160a01b0319831681179093556040519116919082907f8be0079c531659141344cd1fd0a4f28419497f9722a3daafe3b4186f6b6457e090600090a35050565b610e6a828260405180602001604052806000815250611db9565b816001600160a01b0316836001600160a01b03161415611b385760405162461bcd60e51b815260206004820152601960248201527f4552433732313a20617070726f766520746f2063616c6c6572000000000000006044820152606401610857565b6001600160a01b03838116600081815260056020908152604080832094871680845294825291829020805460ff191686151590811790915591519182527f17307eab39ab6107e8899845ad3d59bd9653f200f220920489ca2b5937696c31910160405180910390a3505050565b611bb08484846118bf565b611bbc84848484611dec565b61146f5760405162461bcd60e51b8152600401610857906126c0565b6060600b805461088290612826565b606081611c0b5750506040805180820190915260018152600360fc1b602082015290565b8160005b8115611c355780611c1f81612861565b9150611c2e9050600a836127b0565b9150611c0f565b60008167ffffffffffffffff811115611c5e57634e487b7160e01b600052604160045260246000fd5b6040519080825280601f01601f191660200182016040528015611c88576020820181803683370190505b5090505b84156118b757611c9d6001836127e3565b9150611caa600a8661287c565b611cb5906030612798565b60f81b818381518110611cd857634e487b7160e01b600052603260045260246000fd5b60200101906001600160f81b031916908160001a905350611cfa600a866127b0565b9450611c8c565b6001600160a01b038316611d5c57611d5781600880546000838152600960205260408120829055600182018355919091527ff3f7a9fe364faab93b216da50a3214154f22a0a2b415b23a84c8169e8b636ee30155565b611d7f565b816001600160a01b0316836001600160a01b031614611d7f57611d7f8382611ef9565b6001600160a01b038216611d9657610b8781611f96565b826001600160a01b0316826001600160a01b031614610b8757610b87828261206f565b611dc383836120b3565b611dd06000848484611dec565b610b875760405162461bcd60e51b8152600401610857906126c0565b60006001600160a01b0384163b15611eee57604051630a85bd0160e11b81526001600160a01b0385169063150b7a0290611e3090339089908890889060040161262c565b602060405180830381600087803b158015611e4a57600080fd5b505af1925050508015611e7a575060408051601f3d908101601f19168201909252611e77918101906124c4565b60015b611ed4573d808015611ea8576040519150601f19603f3d011682016040523d82523d6000602084013e611ead565b606091505b508051611ecc5760405162461bcd60e51b8152600401610857906126c0565b805181602001fd5b6001600160e01b031916630a85bd0160e11b1490506118b7565b506001949350505050565b60006001611f0684611116565b611f1091906127e3565b600083815260076020526040902054909150808214611f63576001600160a01b03841660009081526006602090815260408083208584528252808320548484528184208190558352600790915290208190555b5060009182526007602090815260408084208490556001600160a01b039094168352600681528383209183525290812055565b600854600090611fa8906001906127e3565b60008381526009602052604081205460088054939450909284908110611fde57634e487b7160e01b600052603260045260246000fd5b90600052602060002001549050806008838154811061200d57634e487b7160e01b600052603260045260246000fd5b600091825260208083209091019290925582815260099091526040808220849055858252812055600880548061205357634e487b7160e01b600052603160045260246000fd5b6001900381819060005260206000200160009055905550505050565b600061207a83611116565b6001600160a01b039093166000908152600660209081526040808320868452825280832085905593825260079052919091209190915550565b6001600160a01b0382166121095760405162461bcd60e51b815260206004820181905260248201527f4552433732313a206d696e7420746f20746865207a65726f20616464726573736044820152606401610857565b6000818152600260205260409020546001600160a01b03161561216e5760405162461bcd60e51b815260206004820152601c60248201527f4552433732313a20746f6b656e20616c7265616479206d696e746564000000006044820152606401610857565b61217a60008383611d01565b6001600160a01b03821660009081526003602052604081208054600192906121a3908490612798565b909155505060008181526002602052604080822080546001600160a01b0319166001600160a01b03861690811790915590518392907fddf252ad1be2c89b69c2b068fc378daa952ba7f163c4a11628f55a4df523b3ef908290a45050565b82805461220d90612826565b90600052602060002090601f01602090048101928261222f5760008555612275565b82601f1061224857805160ff1916838001178555612275565b82800160010185558215612275579182015b8281111561227557825182559160200191906001019061225a565b50612281929150612285565b5090565b5b808211156122815760008155600101612286565b600067ffffffffffffffff808411156122b5576122b56128bc565b604051601f8501601f19908116603f011681019082821181831017156122dd576122dd6128bc565b816040528093508581528686860111156122f657600080fd5b858560208301376000602087830101525050509392505050565b80356001600160a01b038116811461232757600080fd5b919050565b8035801515811461232757600080fd5b60006020828403121561234d578081fd5b6115fa82612310565b60008060408385031215612368578081fd5b61237183612310565b915061237f60208401612310565b90509250929050565b60008060006060848603121561239c578081fd5b6123a584612310565b92506123b360208501612310565b9150604084013590509250925092565b600080600080608085870312156123d8578081fd5b6123e185612310565b93506123ef60208601612310565b925060408501359150606085013567ffffffffffffffff811115612411578182fd5b8501601f81018713612421578182fd5b6124308782356020840161229a565b91505092959194509250565b6000806040838503121561244e578182fd5b61245783612310565b915061237f6020840161232c565b60008060408385031215612477578182fd5b61248083612310565b946020939093013593505050565b60006020828403121561249f578081fd5b6115fa8261232c565b6000602082840312156124b9578081fd5b81356115fa816128d2565b6000602082840312156124d5578081fd5b81516115fa816128d2565b6000602082840312156124f1578081fd5b813567ffffffffffffffff811115612507578182fd5b8201601f81018413612517578182fd5b6118b78482356020840161229a565b600060208284031215612537578081fd5b5035919050565b600081518084526125568160208601602086016127fa565b601f01601f19169290920160200192915050565b60008451602061257d8285838a016127fa565b8551918401916125908184848a016127fa565b85549201918390600181811c90808316806125ac57607f831692505b8583108114156125ca57634e487b7160e01b88526022600452602488fd5b8080156125de57600181146125ef5761261b565b60ff1985168852838801955061261b565b60008b815260209020895b858110156126135781548a8201529084019088016125fa565b505083880195505b50939b9a5050505050505050505050565b6001600160a01b038581168252841660208201526040810183905260806060820181905260009061265f9083018461253e565b9695505050505050565b6020808252825182820181905260009190848201906040850190845b818110156126a157835183529284019291840191600101612685565b50909695505050505050565b6020815260006115fa602083018461253e565b60208082526032908201527f4552433732313a207472616e7366657220746f206e6f6e20455243373231526560408201527131b2b4bb32b91034b6b83632b6b2b73a32b960711b606082015260800190565b6020808252818101527f4f776e61626c653a2063616c6c6572206973206e6f7420746865206f776e6572604082015260600190565b60208082526031908201527f4552433732313a207472616e736665722063616c6c6572206973206e6f74206f6040820152701ddb995c881b9bdc88185c1c1c9bdd9959607a1b606082015260800190565b600082198211156127ab576127ab612890565b500190565b6000826127bf576127bf6128a6565b500490565b60008160001904831182151516156127de576127de612890565b500290565b6000828210156127f5576127f5612890565b500390565b60005b838110156128155781810151838201526020016127fd565b8381111561146f5750506000910152565b600181811c9082168061283a57607f821691505b6020821081141561285b57634e487b7160e01b600052602260045260246000fd5b50919050565b600060001982141561287557612875612890565b5060010190565b60008261288b5761288b6128a6565b500690565b634e487b7160e01b600052601160045260246000fd5b634e487b7160e01b600052601260045260246000fd5b634e487b7160e01b600052604160045260246000fd5b6001600160e01b031981168114610c6357600080fdfea26469706673582212204e6d9940fc495157136cb7a86e63d1ca1a13511afc53c205cd4762948150baa564736f6c63430008040033a2646970667358221220e01e3654d2c8403b1e0329bcf95a9b6feeff926e4ff108dbbbb3200aad3b5aea64736f6c63430008040033",
  "linkReferences": {},
  "deployedLinkReferences": {}
}