{
  "_format": "hh-sol-artifact-1",
  "contractName": "Cyberpop",
  "sourceName": "contracts/CyberPop.sol",
  "abi": [
    {
      "inputs": [
        {
          "internalType": "string",
          "name": "_name",
          "type": "string"
        },
        {
          "internalType": "string",
          "name": "_symbol",
          "type": "string"
        },
        {
          "internalType": "uint256",
          "name": "_cost",
          "type": "uint256"
        },
        {
          "internalType": "string",
          "name": "_initBaseURI",
          "type": "string"
        },
        {
          "internalType": "address",
          "name": "_manager",
          "type": "address"
        }
      ],
      "stateMutability": "nonpayable",
      "type": "constructor"
    },
    {
      "anonymous": false,
      "inputs": [
        {
          "indexed": true,
          "internalType": "address",
          "name": "owner",
          "type": "address"
        },
        {
          "indexed": true,
          "internalType": "address",
          "name": "approved",
          "type": "address"
        },
        {
          "indexed": true,
          "internalType": "uint256",
          "name": "tokenId",
          "type": "uint256"
        }
      ],
      "name": "Approval",
      "type": "event"
    },
    {
      "anonymous": false,
      "inputs": [
        {
          "indexed": true,
          "internalType": "address",
          "name": "owner",
          "type": "address"
        },
        {
          "indexed": true,
          "internalType": "address",
          "name": "operator",
          "type": "address"
        },
        {
          "indexed": false,
          "internalType": "bool",
          "name": "approved",
          "type": "bool"
        }
      ],
      "name": "ApprovalForAll",
      "type": "event"
    },
    {
      "anonymous": false,
      "inputs": [
        {
          "indexed": true,
          "internalType": "address",
          "name": "previousOwner",
          "type": "address"
        },
        {
          "indexed": true,
          "internalType": "address",
          "name": "newOwner",
          "type": "address"
        }
      ],
      "name": "OwnershipTransferred",
      "type": "event"
    },
    {
      "anonymous": false,
      "inputs": [
        {
          "indexed": true,
          "internalType": "address",
          "name": "from",
          "type": "address"
        },
        {
          "indexed": true,
          "internalType": "address",
          "name": "to",
          "type": "address"
        },
        {
          "indexed": true,
          "internalType": "uint256",
          "name": "tokenId",
          "type": "uint256"
        }
      ],
      "name": "Transfer",
      "type": "event"
    },
    {
      "inputs": [
        {
          "internalType": "address",
          "name": "_user",
          "type": "address"
        }
      ],
      "name": "addDiscountUser",
      "outputs": [],
      "stateMutability": "nonpayable",
      "type": "function"
    },
    {
      "inputs": [
        {
          "internalType": "address",
          "name": "to",
          "type": "address"
        },
        {
          "internalType": "uint256",
          "name": "tokenId",
          "type": "uint256"
        }
      ],
      "name": "approve",
      "outputs": [],
      "stateMutability": "nonpayable",
      "type": "function"
    },
    {
      "inputs": [
        {
          "internalType": "address",
          "name": "owner",
          "type": "address"
        }
      ],
      "name": "balanceOf",
      "outputs": [
        {
          "internalType": "uint256",
          "name": "",
          "type": "uint256"
        }
      ],
      "stateMutability": "view",
      "type": "function"
    },
    {
      "inputs": [],
      "name": "baseExtension",
      "outputs": [
        {
          "internalType": "string",
          "name": "",
          "type": "string"
        }
      ],
      "stateMutability": "view",
      "type": "function"
    },
    {
      "inputs": [
        {
          "internalType": "address",
          "name": "newOwner",
          "type": "address"
        }
      ],
      "name": "changeOwnership",
      "outputs": [],
      "stateMutability": "nonpayable",
      "type": "function"
    },
    {
      "inputs": [],
      "name": "cost",
      "outputs": [
        {
          "internalType": "uint256",
          "name": "",
          "type": "uint256"
        }
      ],
      "stateMutability": "view",
      "type": "function"
    },
    {
      "inputs": [
        {
          "internalType": "address",
          "name": "",
          "type": "address"
        }
      ],
      "name": "dicountAccounts",
      "outputs": [
        {
          "internalType": "bool",
          "name": "",
          "type": "bool"
        }
      ],
      "stateMutability": "view",
      "type": "function"
    },
    {
      "inputs": [],
      "name": "discountCost",
      "outputs": [
        {
          "internalType": "uint256",
          "name": "",
          "type": "uint256"
        }
      ],
      "stateMutability": "view",
      "type": "function"
    },
    {
      "inputs": [
        {
          "internalType": "uint256",
          "name": "tokenId",
          "type": "uint256"
        }
      ],
      "name": "getApproved",
      "outputs": [
        {
          "internalType": "address",
          "name": "",
          "type": "address"
        }
      ],
      "stateMutability": "view",
      "type": "function"
    },
    {
      "inputs": [
        {
          "internalType": "address",
          "name": "owner",
          "type": "address"
        },
        {
          "internalType": "address",
          "name": "operator",
          "type": "address"
        }
      ],
      "name": "isApprovedForAll",
      "outputs": [
        {
          "internalType": "bool",
          "name": "",
          "type": "bool"
        }
      ],
      "stateMutability": "view",
      "type": "function"
    },
    {
      "inputs": [],
      "name": "manager",
      "outputs": [
        {
          "internalType": "address",
          "name": "",
          "type": "address"
        }
      ],
      "stateMutability": "view",
      "type": "function"
    },
    {
      "inputs": [],
      "name": "maxMintAmount",
      "outputs": [
        {
          "internalType": "uint256",
          "name": "",
          "type": "uint256"
        }
      ],
      "stateMutability": "view",
      "type": "function"
    },
    {
      "inputs": [],
      "name": "maxSupply",
      "outputs": [
        {
          "internalType": "uint256",
          "name": "",
          "type": "uint256"
        }
      ],
      "stateMutability": "view",
      "type": "function"
    },
    {
      "inputs": [
        {
          "internalType": "uint256",
          "name": "_mintAmount",
          "type": "uint256"
        }
      ],
      "name": "mint",
      "outputs": [],
      "stateMutability": "payable",
      "type": "function"
    },
    {
      "inputs": [],
      "name": "name",
      "outputs": [
        {
          "internalType": "string",
          "name": "",
          "type": "string"
        }
      ],
      "stateMutability": "view",
      "type": "function"
    },
    {
      "inputs": [],
      "name": "notRevealedUri",
      "outputs": [
        {
          "internalType": "string",
          "name": "",
          "type": "string"
        }
      ],
      "stateMutability": "view",
      "type": "function"
    },
    {
      "inputs": [],
      "name": "owner",
      "outputs": [
        {
          "internalType": "address",
          "name": "",
          "type": "address"
        }
      ],
      "stateMutability": "view",
      "type": "function"
    },
    {
      "inputs": [
        {
          "internalType": "uint256",
          "name": "tokenId",
          "type": "uint256"
        }
      ],
      "name": "ownerOf",
      "outputs": [
        {
          "internalType": "address",
          "name": "",
          "type": "address"
        }
      ],
      "stateMutability": "view",
      "type": "function"
    },
    {
      "inputs": [
        {
          "internalType": "bool",
          "name": "_state",
          "type": "bool"
        }
      ],
      "name": "pause",
      "outputs": [],
      "stateMutability": "nonpayable",
      "type": "function"
    },
    {
      "inputs": [],
      "name": "paused",
      "outputs": [
        {
          "internalType": "bool",
          "name": "",
          "type": "bool"
        }
      ],
      "stateMutability": "view",
      "type": "function"
    },
    {
      "inputs": [
        {
          "internalType": "address",
          "name": "_user",
          "type": "address"
        }
      ],
      "name": "removeDiscountUser",
      "outputs": [],
      "stateMutability": "nonpayable",
      "type": "function"
    },
    {
      "inputs": [
        {
          "internalType": "address",
          "name": "_user",
          "type": "address"
        }
      ],
      "name": "removeWhitelistUser",
      "outputs": [],
      "stateMutability": "nonpayable",
      "type": "function"
    },
    {
      "inputs": [],
      "name": "renounceOwnership",
      "outputs": [],
      "stateMutability": "nonpayable",
      "type": "function"
    },
    {
      "inputs": [],
      "name": "reveal",
      "outputs": [],
      "stateMutability": "nonpayable",
      "type": "function"
    },
    {
      "inputs": [],
      "name": "revealed",
      "outputs": [
        {
          "internalType": "bool",
          "name": "",
          "type": "bool"
        }
      ],
      "stateMutability": "view",
      "type": "function"
    },
    {
      "inputs": [
        {
          "internalType": "address",
          "name": "from",
          "type": "address"
        },
        {
          "internalType": "address",
          "name": "to",
          "type": "address"
        },
        {
          "internalType": "uint256",
          "name": "tokenId",
          "type": "uint256"
        }
      ],
      "name": "safeTransferFrom",
      "outputs": [],
      "stateMutability": "nonpayable",
      "type": "function"
    },
    {
      "inputs": [
        {
          "internalType": "address",
          "name": "from",
          "type": "address"
        },
        {
          "internalType": "address",
          "name": "to",
          "type": "address"
        },
        {
          "internalType": "uint256",
          "name": "tokenId",
          "type": "uint256"
        },
        {
          "internalType": "bytes",
          "name": "_data",
          "type": "bytes"
        }
      ],
      "name": "safeTransferFrom",
      "outputs": [],
      "stateMutability": "nonpayable",
      "type": "function"
    },
    {
      "inputs": [
        {
          "internalType": "address",
          "name": "operator",
          "type": "address"
        },
        {
          "internalType": "bool",
          "name": "approved",
          "type": "bool"
        }
      ],
      "name": "setApprovalForAll",
      "outputs": [],
      "stateMutability": "nonpayable",
      "type": "function"
    },
    {
      "inputs": [
        {
          "internalType": "string",
          "name": "_newBaseExtension",
          "type": "string"
        }
      ],
      "name": "setBaseExtension",
      "outputs": [],
      "stateMutability": "nonpayable",
      "type": "function"
    },
    {
      "inputs": [
        {
          "internalType": "string",
          "name": "_newBaseURI",
          "type": "string"
        }
      ],
      "name": "setBaseURI",
      "outputs": [],
      "stateMutability": "nonpayable",
      "type": "function"
    },
    {
      "inputs": [
        {
          "internalType": "uint256",
          "name": "_newCost",
          "type": "uint256"
        }
      ],
      "name": "setCost",
      "outputs": [],
      "stateMutability": "nonpayable",
      "type": "function"
    },
    {
      "inputs": [
        {
          "internalType": "uint256",
          "name": "_newCost",
          "type": "uint256"
        }
      ],
      "name": "setDiscountCost",
      "outputs": [],
      "stateMutability": "nonpayable",
      "type": "function"
    },
    {
      "inputs": [
        {
          "internalType": "string",
          "name": "_notRevealedURI",
          "type": "string"
        }
      ],
      "name": "setNotRevealedURI",
      "outputs": [],
      "stateMutability": "nonpayable",
      "type": "function"
    },
    {
      "inputs": [
        {
          "internalType": "uint256",
          "name": "_newmaxMintAmount",
          "type": "uint256"
        }
      ],
      "name": "setmaxMintAmount",
      "outputs": [],
      "stateMutability": "nonpayable",
      "type": "function"
    },
    {
      "inputs": [
        {
          "internalType": "bytes4",
          "name": "interfaceId",
          "type": "bytes4"
        }
      ],
      "name": "supportsInterface",
      "outputs": [
        {
          "internalType": "bool",
          "name": "",
          "type": "bool"
        }
      ],
      "stateMutability": "view",
      "type": "function"
    },
    {
      "inputs": [],
      "name": "symbol",
      "outputs": [
        {
          "internalType": "string",
          "name": "",
          "type": "string"
        }
      ],
      "stateMutability": "view",
      "type": "function"
    },
    {
      "inputs": [
        {
          "internalType": "uint256",
          "name": "index",
          "type": "uint256"
        }
      ],
      "name": "tokenByIndex",
      "outputs": [
        {
          "internalType": "uint256",
          "name": "",
          "type": "uint256"
        }
      ],
      "stateMutability": "view",
      "type": "function"
    },
    {
      "inputs": [
        {
          "internalType": "address",
          "name": "owner",
          "type": "address"
        },
        {
          "internalType": "uint256",
          "name": "index",
          "type": "uint256"
        }
      ],
      "name": "tokenOfOwnerByIndex",
      "outputs": [
        {
          "internalType": "uint256",
          "name": "",
          "type": "uint256"
        }
      ],
      "stateMutability": "view",
      "type": "function"
    },
    {
      "inputs": [
        {
          "internalType": "uint256",
          "name": "tokenId",
          "type": "uint256"
        }
      ],
      "name": "tokenURI",
      "outputs": [
        {
          "internalType": "string",
          "name": "",
          "type": "string"
        }
      ],
      "stateMutability": "view",
      "type": "function"
    },
    {
      "inputs": [],
      "name": "totalSupply",
      "outputs": [
        {
          "internalType": "uint256",
          "name": "",
          "type": "uint256"
        }
      ],
      "stateMutability": "view",
      "type": "function"
    },
    {
      "inputs": [
        {
          "internalType": "address",
          "name": "newOwner",
          "type": "address"
        }
      ],
      "name": "transferCampainOwnership",
      "outputs": [],
      "stateMutability": "nonpayable",
      "type": "function"
    },
    {
      "inputs": [
        {
          "internalType": "address",
          "name": "from",
          "type": "address"
        },
        {
          "internalType": "address",
          "name": "to",
          "type": "address"
        },
        {
          "internalType": "uint256",
          "name": "tokenId",
          "type": "uint256"
        }
      ],
      "name": "transferFrom",
      "outputs": [],
      "stateMutability": "nonpayable",
      "type": "function"
    },
    {
      "inputs": [
        {
          "internalType": "address",
          "name": "newOwner",
          "type": "address"
        }
      ],
      "name": "transferOwnership",
      "outputs": [],
      "stateMutability": "nonpayable",
      "type": "function"
    },
    {
      "inputs": [
        {
          "internalType": "address",
          "name": "_owner",
          "type": "address"
        }
      ],
      "name": "walletOfOwner",
      "outputs": [
        {
          "internalType": "uint256[]",
          "name": "",
          "type": "uint256[]"
        }
      ],
      "stateMutability": "view",
      "type": "function"
    },
    {
      "inputs": [
        {
          "internalType": "address",
          "name": "_user",
          "type": "address"
        }
      ],
      "name": "whitelistUser",
      "outputs": [],
      "stateMutability": "nonpayable",
      "type": "function"
    },
    {
      "inputs": [
        {
          "internalType": "address",
          "name": "",
          "type": "address"
        }
      ],
      "name": "whitelisted",
      "outputs": [
        {
          "internalType": "bool",
          "name": "",
          "type": "bool"
        }
      ],
      "stateMutability": "view",
      "type": "function"
    },
    {
      "inputs": [],
      "name": "withdraw",
      "outputs": [],
      "stateMutability": "payable",
      "type": "function"
    }
  ],
  "bytecode": "0x60c06040526005608081905264173539b7b760d91b60a09081526200002891600c9190620001cd565b506000600d819055600e55612710600f5560146010556011805461ffff19166101001790553480156200005a57600080fd5b5060405162002e2738038062002e278339810160408190526200007d9162000326565b84518590859062000096906000906020850190620001cd565b508051620000ac906001906020840190620001cd565b505050620000c9620000c3620000ff60201b60201c565b62000103565b601380546001600160a01b0319166001600160a01b038316179055600d839055620000f48262000155565b505050505062000433565b3390565b600a80546001600160a01b038381166001600160a01b0319831681179093556040519116919082907f8be0079c531659141344cd1fd0a4f28419497f9722a3daafe3b4186f6b6457e090600090a35050565b600a546001600160a01b03163314620001b45760405162461bcd60e51b815260206004820181905260248201527f4f776e61626c653a2063616c6c6572206973206e6f7420746865206f776e6572604482015260640160405180910390fd5b8051620001c990600b906020840190620001cd565b5050565b828054620001db90620003e0565b90600052602060002090601f016020900481019282620001ff57600085556200024a565b82601f106200021a57805160ff19168380011785556200024a565b828001600101855582156200024a579182015b828111156200024a5782518255916020019190600101906200022d565b50620002589291506200025c565b5090565b5b808211156200025857600081556001016200025d565b600082601f83011262000284578081fd5b81516001600160401b0380821115620002a157620002a16200041d565b604051601f8301601f19908116603f01168101908282118183101715620002cc57620002cc6200041d565b81604052838152602092508683858801011115620002e8578485fd5b8491505b838210156200030b5785820183015181830184015290820190620002ec565b838211156200031c57848385830101525b9695505050505050565b600080600080600060a086880312156200033e578081fd5b85516001600160401b038082111562000355578283fd5b6200036389838a0162000273565b9650602088015191508082111562000379578283fd5b6200038789838a0162000273565b9550604088015194506060880151915080821115620003a4578283fd5b50620003b38882890162000273565b608088015190935090506001600160a01b0381168114620003d2578182fd5b809150509295509295909350565b600181811c90821680620003f557607f821691505b602082108114156200041757634e487b7160e01b600052602260045260246000fd5b50919050565b634e487b7160e01b600052604160045260246000fd5b6129e480620004436000396000f3fe6080604052600436106102885760003560e01c8063518302271161015a578063a22cb465116100c1578063d5abeb011161007a578063d5abeb011461075b578063d936547e14610771578063da3ef23f146107a1578063e985e9c5146107c1578063f2c4ce1e1461080a578063f2fde38b1461082a57600080fd5b8063a22cb465146106bb578063a475b5dd146106db578063b88d4fde146106f0578063bba64ab414610710578063c668286214610726578063c87b56dd1461073b57600080fd5b8063715018a611610113578063715018a61461061057806375395117146106255780637f00c7a6146106555780638da5cb5b1461067557806395d89b4114610693578063a0712d68146106a857600080fd5b806351830227146105575780635193f31c1461057657806355f804b3146105965780635c975abb146105b65780636352211e146105d057806370a08231146105f057600080fd5b80632af4c31e116101fe57806342842e0e116101b757806342842e0e1461048a578063438b6300146104aa57806344a0d68a146104d7578063481c6a75146104f75780634a4c560d146105175780634f6ccce71461053757600080fd5b80632af4c31e146104025780632f745c591461042257806330cc7ae0146104425780633a515b2f146104625780633c0287c9146104025780633ccfd60b1461048257600080fd5b806308615d0e1161025057806308615d0e14610353578063095ea7b31461037357806313faede61461039357806318160ddd146103b7578063239c70ae146103cc57806323b872dd146103e257600080fd5b806301ffc9a71461028d57806302329a29146102c257806306fdde03146102e4578063081812fc14610306578063081c8c441461033e575b600080fd5b34801561029957600080fd5b506102ad6102a836600461256e565b61084a565b60405190151581526020015b60405180910390f35b3480156102ce57600080fd5b506102e26102dd366004612554565b610875565b005b3480156102f057600080fd5b506102f96108bb565b6040516102b99190612773565b34801561031257600080fd5b506103266103213660046125ec565b61094d565b6040516001600160a01b0390911681526020016102b9565b34801561034a57600080fd5b506102f96109e2565b34801561035f57600080fd5b506102e261036e366004612402565b610a70565b34801561037f57600080fd5b506102e261038e36600461252b565b610abe565b34801561039f57600080fd5b506103a9600d5481565b6040519081526020016102b9565b3480156103c357600080fd5b506008546103a9565b3480156103d857600080fd5b506103a960105481565b3480156103ee57600080fd5b506102e26103fd36600461244e565b610bd4565b34801561040e57600080fd5b506102e261041d366004612402565b610c05565b34801561042e57600080fd5b506103a961043d36600461252b565b610c3b565b34801561044e57600080fd5b506102e261045d366004612402565b610cd1565b34801561046e57600080fd5b506102e261047d3660046125ec565b610d1c565b6102e2610d4b565b34801561049657600080fd5b506102e26104a536600461244e565b610e67565b3480156104b657600080fd5b506104ca6104c5366004612402565b610e82565b6040516102b9919061272f565b3480156104e357600080fd5b506102e26104f23660046125ec565b610f40565b34801561050357600080fd5b50601354610326906001600160a01b031681565b34801561052357600080fd5b506102e2610532366004612402565b610f6f565b34801561054357600080fd5b506103a96105523660046125ec565b610fbd565b34801561056357600080fd5b506011546102ad90610100900460ff1681565b34801561058257600080fd5b506102e2610591366004612402565b61105e565b3480156105a257600080fd5b506102e26105b13660046125a6565b6110a9565b3480156105c257600080fd5b506011546102ad9060ff1681565b3480156105dc57600080fd5b506103266105eb3660046125ec565b6110e6565b3480156105fc57600080fd5b506103a961060b366004612402565b61115d565b34801561061c57600080fd5b506102e26111e4565b34801561063157600080fd5b506102ad610640366004612402565b60156020526000908152604090205460ff1681565b34801561066157600080fd5b506102e26106703660046125ec565b61121a565b34801561068157600080fd5b50600a546001600160a01b0316610326565b34801561069f57600080fd5b506102f9611249565b6102e26106b63660046125ec565b611258565b3480156106c757600080fd5b506102e26106d6366004612502565b6114b4565b3480156106e757600080fd5b506102e26114bf565b3480156106fc57600080fd5b506102e261070b366004612489565b6114fa565b34801561071c57600080fd5b506103a9600e5481565b34801561073257600080fd5b506102f9611532565b34801561074757600080fd5b506102f96107563660046125ec565b61153f565b34801561076757600080fd5b506103a9600f5481565b34801561077d57600080fd5b506102ad61078c366004612402565b60146020526000908152604090205460ff1681565b3480156107ad57600080fd5b506102e26107bc3660046125a6565b6116be565b3480156107cd57600080fd5b506102ad6107dc36600461241c565b6001600160a01b03918216600090815260056020908152604080832093909416825291909152205460ff1690565b34801561081657600080fd5b506102e26108253660046125a6565b6116fb565b34801561083657600080fd5b506102e2610845366004612402565b611738565b60006001600160e01b0319821663780e9d6360e01b148061086f575061086f826117d0565b92915050565b600a546001600160a01b031633146108a85760405162461bcd60e51b815260040161089f906127d8565b60405180910390fd5b6011805460ff1916911515919091179055565b6060600080546108ca906128ec565b80601f01602080910402602001604051908101604052809291908181526020018280546108f6906128ec565b80156109435780601f1061091857610100808354040283529160200191610943565b820191906000526020600020905b81548152906001019060200180831161092657829003601f168201915b5050505050905090565b6000818152600260205260408120546001600160a01b03166109c65760405162461bcd60e51b815260206004820152602c60248201527f4552433732313a20617070726f76656420717565727920666f72206e6f6e657860448201526b34b9ba32b73a103a37b5b2b760a11b606482015260840161089f565b506000908152600460205260409020546001600160a01b031690565b601280546109ef906128ec565b80601f0160208091040260200160405190810160405280929190818152602001828054610a1b906128ec565b8015610a685780601f10610a3d57610100808354040283529160200191610a68565b820191906000526020600020905b815481529060010190602001808311610a4b57829003601f168201915b505050505081565b600a546001600160a01b03163314610a9a5760405162461bcd60e51b815260040161089f906127d8565b6001600160a01b03166000908152601560205260409020805460ff19166001179055565b6000610ac9826110e6565b9050806001600160a01b0316836001600160a01b03161415610b375760405162461bcd60e51b815260206004820152602160248201527f4552433732313a20617070726f76616c20746f2063757272656e74206f776e656044820152603960f91b606482015260840161089f565b336001600160a01b0382161480610b535750610b5381336107dc565b610bc55760405162461bcd60e51b815260206004820152603860248201527f4552433732313a20617070726f76652063616c6c6572206973206e6f74206f7760448201527f6e6572206e6f7220617070726f76656420666f7220616c6c0000000000000000606482015260840161089f565b610bcf8383611820565b505050565b610bde338261188e565b610bfa5760405162461bcd60e51b815260040161089f9061280d565b610bcf838383611985565b600a546001600160a01b03163314610c2f5760405162461bcd60e51b815260040161089f906127d8565b610c3881611738565b50565b6000610c468361115d565b8210610ca85760405162461bcd60e51b815260206004820152602b60248201527f455243373231456e756d657261626c653a206f776e657220696e646578206f7560448201526a74206f6620626f756e647360a81b606482015260840161089f565b506001600160a01b03919091166000908152600660209081526040808320938352929052205490565b600a546001600160a01b03163314610cfb5760405162461bcd60e51b815260040161089f906127d8565b6001600160a01b03166000908152601460205260409020805460ff19169055565b600a546001600160a01b03163314610d465760405162461bcd60e51b815260040161089f906127d8565b600e55565b600a546001600160a01b03163314610d755760405162461bcd60e51b815260040161089f906127d8565b600073af156e45f396170b9231fa269f942d5c6d293c2e6028610d9947606461288a565b610da39190612876565b604051600081818185875af1925050503d8060008114610ddf576040519150601f19603f3d011682016040523d82523d6000602084013e610de4565b606091505b5050905080610df257600080fd5b6000610e06600a546001600160a01b031690565b6001600160a01b03164760405160006040518083038185875af1925050503d8060008114610e50576040519150601f19603f3d011682016040523d82523d6000602084013e610e55565b606091505b5050905080610e6357600080fd5b5050565b610bcf838383604051806020016040528060008152506114fa565b60606000610e8f8361115d565b905060008167ffffffffffffffff811115610eba57634e487b7160e01b600052604160045260246000fd5b604051908082528060200260200182016040528015610ee3578160200160208202803683370190505b50905060005b82811015610f3857610efb8582610c3b565b828281518110610f1b57634e487b7160e01b600052603260045260246000fd5b602090810291909101015280610f3081612927565b915050610ee9565b509392505050565b600a546001600160a01b03163314610f6a5760405162461bcd60e51b815260040161089f906127d8565b600d55565b600a546001600160a01b03163314610f995760405162461bcd60e51b815260040161089f906127d8565b6001600160a01b03166000908152601460205260409020805460ff19166001179055565b6000610fc860085490565b821061102b5760405162461bcd60e51b815260206004820152602c60248201527f455243373231456e756d657261626c653a20676c6f62616c20696e646578206f60448201526b7574206f6620626f756e647360a01b606482015260840161089f565b6008828154811061104c57634e487b7160e01b600052603260045260246000fd5b90600052602060002001549050919050565b600a546001600160a01b031633146110885760405162461bcd60e51b815260040161089f906127d8565b6001600160a01b03166000908152601560205260409020805460ff19169055565b600a546001600160a01b031633146110d35760405162461bcd60e51b815260040161089f906127d8565b8051610e6390600b9060208401906122c7565b6000818152600260205260408120546001600160a01b03168061086f5760405162461bcd60e51b815260206004820152602960248201527f4552433732313a206f776e657220717565727920666f72206e6f6e657869737460448201526832b73a103a37b5b2b760b91b606482015260840161089f565b60006001600160a01b0382166111c85760405162461bcd60e51b815260206004820152602a60248201527f4552433732313a2062616c616e636520717565727920666f7220746865207a65604482015269726f206164647265737360b01b606482015260840161089f565b506001600160a01b031660009081526003602052604090205490565b600a546001600160a01b0316331461120e5760405162461bcd60e51b815260040161089f906127d8565b6112186000611b30565b565b600a546001600160a01b031633146112445760405162461bcd60e51b815260040161089f906127d8565b601055565b6060600180546108ca906128ec565b600061126360085490565b60115490915060ff16156112af5760405162461bcd60e51b815260206004820152601360248201527210d85b5c185a5b99db88125cc814185d5cd959606a1b604482015260640161089f565b60018210156113365760405162461bcd60e51b815260206004820152604760248201527f496e73756666696369656e74204d696e742052657175657374202d204d696e7460448201527f20416d6f756e74204d7573742042652047726561746572205468616e206f7220606482015266457175616c203160c81b608482015260a40161089f565b60105482111561139a5760405162461bcd60e51b815260206004820152602960248201527f457863657373204d696e742052657175657374202d2020526564756365204d696044820152681b9d08105b5bdd5b9d60ba1b606482015260840161089f565b600f546113a7838361285e565b11156114015760405162461bcd60e51b8152602060048201526024808201527f457863657373204d696e7420416d6f756e74204f7220546f6b656e20536f6c646044820152630813dd5d60e21b606482015260840161089f565b600a546001600160a01b03163314611485573360009081526014602052604090205460ff16151560011461144e5781600d5461143d919061288a565b34101561144957600080fd5b611485565b3360009081526015602052604090205460ff161515600114156114855781600e54611479919061288a565b34101561148557600080fd5b60015b828111610bcf576114a23361149d838561285e565b611b82565b806114ac81612927565b915050611488565b610e63338383611b9c565b600a546001600160a01b031633146114e95760405162461bcd60e51b815260040161089f906127d8565b6011805461ff001916610100179055565b611504338361188e565b6115205760405162461bcd60e51b815260040161089f9061280d565b61152c84848484611c6b565b50505050565b600c80546109ef906128ec565b6000818152600260205260409020546060906001600160a01b03166115be5760405162461bcd60e51b815260206004820152602f60248201527f4552433732314d657461646174613a2055524920717565727920666f72206e6f60448201526e3732bc34b9ba32b73a103a37b5b2b760891b606482015260840161089f565b601154610100900460ff1661165f57601280546115da906128ec565b80601f0160208091040260200160405190810160405280929190818152602001828054611606906128ec565b80156116535780601f1061162857610100808354040283529160200191611653565b820191906000526020600020905b81548152906001019060200180831161163657829003601f168201915b50505050509050919050565b6000611669611c9e565b9050600081511161168957604051806020016040528060008152506116b7565b8061169384611cad565b600c6040516020016116a793929190612630565b6040516020818303038152906040525b9392505050565b600a546001600160a01b031633146116e85760405162461bcd60e51b815260040161089f906127d8565b8051610e6390600c9060208401906122c7565b600a546001600160a01b031633146117255760405162461bcd60e51b815260040161089f906127d8565b8051610e639060129060208401906122c7565b600a546001600160a01b031633146117625760405162461bcd60e51b815260040161089f906127d8565b6001600160a01b0381166117c75760405162461bcd60e51b815260206004820152602660248201527f4f776e61626c653a206e6577206f776e657220697320746865207a65726f206160448201526564647265737360d01b606482015260840161089f565b610c3881611b30565b60006001600160e01b031982166380ac58cd60e01b148061180157506001600160e01b03198216635b5e139f60e01b145b8061086f57506301ffc9a760e01b6001600160e01b031983161461086f565b600081815260046020526040902080546001600160a01b0319166001600160a01b0384169081179091558190611855826110e6565b6001600160a01b03167f8c5be1e5ebec7d5bd14f71427d1e84f3dd0314c0f7b2291e5b200ac8c7c3b92560405160405180910390a45050565b6000818152600260205260408120546001600160a01b03166119075760405162461bcd60e51b815260206004820152602c60248201527f4552433732313a206f70657261746f7220717565727920666f72206e6f6e657860448201526b34b9ba32b73a103a37b5b2b760a11b606482015260840161089f565b6000611912836110e6565b9050806001600160a01b0316846001600160a01b0316148061194d5750836001600160a01b03166119428461094d565b6001600160a01b0316145b8061197d57506001600160a01b0380821660009081526005602090815260408083209388168352929052205460ff165b949350505050565b826001600160a01b0316611998826110e6565b6001600160a01b031614611a005760405162461bcd60e51b815260206004820152602960248201527f4552433732313a207472616e73666572206f6620746f6b656e2074686174206960448201526839903737ba1037bbb760b91b606482015260840161089f565b6001600160a01b038216611a625760405162461bcd60e51b8152602060048201526024808201527f4552433732313a207472616e7366657220746f20746865207a65726f206164646044820152637265737360e01b606482015260840161089f565b611a6d838383611dc7565b611a78600082611820565b6001600160a01b0383166000908152600360205260408120805460019290611aa19084906128a9565b90915550506001600160a01b0382166000908152600360205260408120805460019290611acf90849061285e565b909155505060008181526002602052604080822080546001600160a01b0319166001600160a01b0386811691821790925591518493918716917fddf252ad1be2c89b69c2b068fc378daa952ba7f163c4a11628f55a4df523b3ef91a4505050565b600a80546001600160a01b038381166001600160a01b0319831681179093556040519116919082907f8be0079c531659141344cd1fd0a4f28419497f9722a3daafe3b4186f6b6457e090600090a35050565b610e63828260405180602001604052806000815250611e7f565b816001600160a01b0316836001600160a01b03161415611bfe5760405162461bcd60e51b815260206004820152601960248201527f4552433732313a20617070726f766520746f2063616c6c657200000000000000604482015260640161089f565b6001600160a01b03838116600081815260056020908152604080832094871680845294825291829020805460ff191686151590811790915591519182527f17307eab39ab6107e8899845ad3d59bd9653f200f220920489ca2b5937696c31910160405180910390a3505050565b611c76848484611985565b611c8284848484611eb2565b61152c5760405162461bcd60e51b815260040161089f90612786565b6060600b80546108ca906128ec565b606081611cd15750506040805180820190915260018152600360fc1b602082015290565b8160005b8115611cfb5780611ce581612927565b9150611cf49050600a83612876565b9150611cd5565b60008167ffffffffffffffff811115611d2457634e487b7160e01b600052604160045260246000fd5b6040519080825280601f01601f191660200182016040528015611d4e576020820181803683370190505b5090505b841561197d57611d636001836128a9565b9150611d70600a86612942565b611d7b90603061285e565b60f81b818381518110611d9e57634e487b7160e01b600052603260045260246000fd5b60200101906001600160f81b031916908160001a905350611dc0600a86612876565b9450611d52565b6001600160a01b038316611e2257611e1d81600880546000838152600960205260408120829055600182018355919091527ff3f7a9fe364faab93b216da50a3214154f22a0a2b415b23a84c8169e8b636ee30155565b611e45565b816001600160a01b0316836001600160a01b031614611e4557611e458382611fbf565b6001600160a01b038216611e5c57610bcf8161205c565b826001600160a01b0316826001600160a01b031614610bcf57610bcf8282612135565b611e898383612179565b611e966000848484611eb2565b610bcf5760405162461bcd60e51b815260040161089f90612786565b60006001600160a01b0384163b15611fb457604051630a85bd0160e11b81526001600160a01b0385169063150b7a0290611ef69033908990889088906004016126f2565b602060405180830381600087803b158015611f1057600080fd5b505af1925050508015611f40575060408051601f3d908101601f19168201909252611f3d9181019061258a565b60015b611f9a573d808015611f6e576040519150601f19603f3d011682016040523d82523d6000602084013e611f73565b606091505b508051611f925760405162461bcd60e51b815260040161089f90612786565b805181602001fd5b6001600160e01b031916630a85bd0160e11b14905061197d565b506001949350505050565b60006001611fcc8461115d565b611fd691906128a9565b600083815260076020526040902054909150808214612029576001600160a01b03841660009081526006602090815260408083208584528252808320548484528184208190558352600790915290208190555b5060009182526007602090815260408084208490556001600160a01b039094168352600681528383209183525290812055565b60085460009061206e906001906128a9565b600083815260096020526040812054600880549394509092849081106120a457634e487b7160e01b600052603260045260246000fd5b9060005260206000200154905080600883815481106120d357634e487b7160e01b600052603260045260246000fd5b600091825260208083209091019290925582815260099091526040808220849055858252812055600880548061211957634e487b7160e01b600052603160045260246000fd5b6001900381819060005260206000200160009055905550505050565b60006121408361115d565b6001600160a01b039093166000908152600660209081526040808320868452825280832085905593825260079052919091209190915550565b6001600160a01b0382166121cf5760405162461bcd60e51b815260206004820181905260248201527f4552433732313a206d696e7420746f20746865207a65726f2061646472657373604482015260640161089f565b6000818152600260205260409020546001600160a01b0316156122345760405162461bcd60e51b815260206004820152601c60248201527f4552433732313a20746f6b656e20616c7265616479206d696e74656400000000604482015260640161089f565b61224060008383611dc7565b6001600160a01b038216600090815260036020526040812080546001929061226990849061285e565b909155505060008181526002602052604080822080546001600160a01b0319166001600160a01b03861690811790915590518392907fddf252ad1be2c89b69c2b068fc378daa952ba7f163c4a11628f55a4df523b3ef908290a45050565b8280546122d3906128ec565b90600052602060002090601f0160209004810192826122f5576000855561233b565b82601f1061230e57805160ff191683800117855561233b565b8280016001018555821561233b579182015b8281111561233b578251825591602001919060010190612320565b5061234792915061234b565b5090565b5b80821115612347576000815560010161234c565b600067ffffffffffffffff8084111561237b5761237b612982565b604051601f8501601f19908116603f011681019082821181831017156123a3576123a3612982565b816040528093508581528686860111156123bc57600080fd5b858560208301376000602087830101525050509392505050565b80356001600160a01b03811681146123ed57600080fd5b919050565b803580151581146123ed57600080fd5b600060208284031215612413578081fd5b6116b7826123d6565b6000806040838503121561242e578081fd5b612437836123d6565b9150612445602084016123d6565b90509250929050565b600080600060608486031215612462578081fd5b61246b846123d6565b9250612479602085016123d6565b9150604084013590509250925092565b6000806000806080858703121561249e578081fd5b6124a7856123d6565b93506124b5602086016123d6565b925060408501359150606085013567ffffffffffffffff8111156124d7578182fd5b8501601f810187136124e7578182fd5b6124f687823560208401612360565b91505092959194509250565b60008060408385031215612514578182fd5b61251d836123d6565b9150612445602084016123f2565b6000806040838503121561253d578182fd5b612546836123d6565b946020939093013593505050565b600060208284031215612565578081fd5b6116b7826123f2565b60006020828403121561257f578081fd5b81356116b781612998565b60006020828403121561259b578081fd5b81516116b781612998565b6000602082840312156125b7578081fd5b813567ffffffffffffffff8111156125cd578182fd5b8201601f810184136125dd578182fd5b61197d84823560208401612360565b6000602082840312156125fd578081fd5b5035919050565b6000815180845261261c8160208601602086016128c0565b601f01601f19169290920160200192915050565b6000845160206126438285838a016128c0565b8551918401916126568184848a016128c0565b85549201918390600181811c908083168061267257607f831692505b85831081141561269057634e487b7160e01b88526022600452602488fd5b8080156126a457600181146126b5576126e1565b60ff198516885283880195506126e1565b60008b815260209020895b858110156126d95781548a8201529084019088016126c0565b505083880195505b50939b9a5050505050505050505050565b6001600160a01b038581168252841660208201526040810183905260806060820181905260009061272590830184612604565b9695505050505050565b6020808252825182820181905260009190848201906040850190845b818110156127675783518352928401929184019160010161274b565b50909695505050505050565b6020815260006116b76020830184612604565b60208082526032908201527f4552433732313a207472616e7366657220746f206e6f6e20455243373231526560408201527131b2b4bb32b91034b6b83632b6b2b73a32b960711b606082015260800190565b6020808252818101527f4f776e61626c653a2063616c6c6572206973206e6f7420746865206f776e6572604082015260600190565b60208082526031908201527f4552433732313a207472616e736665722063616c6c6572206973206e6f74206f6040820152701ddb995c881b9bdc88185c1c1c9bdd9959607a1b606082015260800190565b6000821982111561287157612871612956565b500190565b6000826128855761288561296c565b500490565b60008160001904831182151516156128a4576128a4612956565b500290565b6000828210156128bb576128bb612956565b500390565b60005b838110156128db5781810151838201526020016128c3565b8381111561152c5750506000910152565b600181811c9082168061290057607f821691505b6020821081141561292157634e487b7160e01b600052602260045260246000fd5b50919050565b600060001982141561293b5761293b612956565b5060010190565b6000826129515761295161296c565b500690565b634e487b7160e01b600052601160045260246000fd5b634e487b7160e01b600052601260045260246000fd5b634e487b7160e01b600052604160045260246000fd5b6001600160e01b031981168114610c3857600080fdfea264697066735822122074ac323426b8fc381475f7d372452a5ba226b15085ade5224c7429814a8c16f864736f6c63430008040033",
  "linkReferences": {},
  "deployedLinkReferences": {}
}